{
  "_format": "hh-sol-artifact-1",
  "contractName": "paymentRequests",
  "sourceName": "contracts/paymentRequest.sol",
  "abi": [
    {
      "inputs": [
        {
          "internalType": "address",
          "name": "_managerAddress",
          "type": "address"
        }
      ],
      "stateMutability": "nonpayable",
      "type": "constructor"
    },
    {
      "anonymous": false,
      "inputs": [
        {
          "indexed": true,
          "internalType": "address",
          "name": "previousOwner",
          "type": "address"
        },
        {
          "indexed": true,
          "internalType": "address",
          "name": "newOwner",
          "type": "address"
        }
      ],
      "name": "OwnershipTransferred",
      "type": "event"
    },
    {
      "anonymous": false,
      "inputs": [
        {
          "indexed": false,
          "internalType": "address",
          "name": "payee",
          "type": "address"
        },
        {
          "indexed": false,
          "internalType": "address",
          "name": "payer",
          "type": "address"
        },
        {
          "indexed": false,
          "internalType": "uint256",
          "name": "id",
          "type": "uint256"
        },
        {
          "indexed": false,
          "internalType": "uint256",
          "name": "amount",
          "type": "uint256"
        }
      ],
      "name": "RequestPaid",
      "type": "event"
    },
    {
      "anonymous": false,
      "inputs": [
        {
          "indexed": false,
          "internalType": "address",
          "name": "creator",
          "type": "address"
        },
        {
          "indexed": false,
          "internalType": "address",
          "name": "payer",
          "type": "address"
        },
        {
          "indexed": false,
          "internalType": "uint256",
          "name": "id",
          "type": "uint256"
        },
        {
          "indexed": false,
          "internalType": "uint256",
          "name": "amount",
          "type": "uint256"
        },
        {
          "indexed": false,
          "internalType": "string",
          "name": "detailsURI",
          "type": "string"
        }
      ],
      "name": "RequestsCreated",
      "type": "event"
    },
    {
      "inputs": [
        {
          "internalType": "address",
          "name": "_creator",
          "type": "address"
        },
        {
          "internalType": "uint256",
          "name": "_id",
          "type": "uint256"
        },
        {
          "internalType": "uint256",
          "name": "_tenure",
          "type": "uint256"
        }
      ],
      "name": "PayEMI",
      "outputs": [],
      "stateMutability": "payable",
      "type": "function"
    },
    {
      "inputs": [
        {
          "internalType": "address",
          "name": "_creator",
          "type": "address"
        },
        {
          "internalType": "uint256",
          "name": "_id",
          "type": "uint256"
        },
        {
          "internalType": "uint256",
          "name": "_timePeriod",
          "type": "uint256"
        }
      ],
      "name": "PayLater",
      "outputs": [],
      "stateMutability": "payable",
      "type": "function"
    },
    {
      "inputs": [
        {
          "internalType": "address",
          "name": "_creator",
          "type": "address"
        },
        {
          "internalType": "uint256",
          "name": "_id",
          "type": "uint256"
        },
        {
          "internalType": "uint256",
          "name": "choice",
          "type": "uint256"
        }
      ],
      "name": "PayNow",
      "outputs": [],
      "stateMutability": "payable",
      "type": "function"
    },
    {
      "inputs": [
        {
          "internalType": "address",
          "name": "_creator",
          "type": "address"
        },
        {
          "internalType": "uint256",
          "name": "_id",
          "type": "uint256"
        },
        {
          "internalType": "uint256",
          "name": "_timePeriod",
          "type": "uint256"
        },
        {
          "internalType": "int96",
          "name": "_flowRate",
          "type": "int96"
        },
        {
          "internalType": "contract ISuperfluidToken",
          "name": "_token",
          "type": "address"
        }
      ],
      "name": "PayStream",
      "outputs": [
        {
          "internalType": "uint256",
          "name": "streamID",
          "type": "uint256"
        }
      ],
      "stateMutability": "payable",
      "type": "function"
    },
    {
      "inputs": [
        {
          "internalType": "address",
          "name": "_creator",
          "type": "address"
        },
        {
          "internalType": "uint256",
          "name": "_id",
          "type": "uint256"
        }
      ],
      "name": "completePayEMI",
      "outputs": [],
      "stateMutability": "payable",
      "type": "function"
    },
    {
      "inputs": [
        {
          "internalType": "address",
          "name": "_creator",
          "type": "address"
        },
        {
          "internalType": "uint256",
          "name": "_id",
          "type": "uint256"
        }
      ],
      "name": "completePayLater",
      "outputs": [],
      "stateMutability": "payable",
      "type": "function"
    },
    {
      "inputs": [
        {
          "internalType": "address",
          "name": "_creator",
          "type": "address"
        },
        {
          "internalType": "uint256",
          "name": "_id",
          "type": "uint256"
        }
      ],
      "name": "completePayStream",
      "outputs": [],
      "stateMutability": "payable",
      "type": "function"
    },
    {
      "inputs": [
        {
          "internalType": "uint256",
          "name": "_amount",
          "type": "uint256"
        },
        {
          "internalType": "string",
          "name": "_detailsURI",
          "type": "string"
        },
        {
          "internalType": "address",
          "name": "payer",
          "type": "address"
        }
      ],
      "name": "createRequest",
      "outputs": [
        {
          "internalType": "uint256",
          "name": "id",
          "type": "uint256"
        }
      ],
      "stateMutability": "nonpayable",
      "type": "function"
    },
    {
      "inputs": [],
      "name": "managerAddress",
      "outputs": [
        {
          "internalType": "address",
          "name": "",
          "type": "address"
        }
      ],
      "stateMutability": "view",
      "type": "function"
    },
    {
      "inputs": [],
      "name": "owner",
      "outputs": [
        {
          "internalType": "address",
          "name": "",
          "type": "address"
        }
      ],
      "stateMutability": "view",
      "type": "function"
    },
    {
      "inputs": [],
      "name": "paymentsAddress",
      "outputs": [
        {
          "internalType": "address",
          "name": "",
          "type": "address"
        }
      ],
      "stateMutability": "view",
      "type": "function"
    },
    {
      "inputs": [],
      "name": "renounceOwnership",
      "outputs": [],
      "stateMutability": "nonpayable",
      "type": "function"
    },
    {
      "inputs": [
        {
          "internalType": "address",
          "name": "",
          "type": "address"
        },
        {
          "internalType": "uint256",
          "name": "",
          "type": "uint256"
        }
      ],
      "name": "requests",
      "outputs": [
        {
          "internalType": "address",
          "name": "payer",
          "type": "address"
        },
        {
          "internalType": "uint256",
          "name": "amount",
          "type": "uint256"
        },
        {
          "internalType": "string",
          "name": "detailsURI",
          "type": "string"
        },
        {
          "internalType": "enum paymentRequests.payState",
          "name": "_state",
          "type": "uint8"
        },
        {
          "internalType": "enum paymentRequests.payMode",
          "name": "_mode",
          "type": "uint8"
        }
      ],
      "stateMutability": "view",
      "type": "function"
    },
    {
      "inputs": [
        {
          "internalType": "address",
          "name": "_managerAddress",
          "type": "address"
        }
      ],
      "name": "setManager",
      "outputs": [],
      "stateMutability": "nonpayable",
      "type": "function"
    },
    {
      "inputs": [
        {
          "internalType": "address",
          "name": "_paymentsAddress",
          "type": "address"
        }
      ],
      "name": "setPayments",
      "outputs": [],
      "stateMutability": "nonpayable",
      "type": "function"
    },
    {
      "inputs": [
        {
          "internalType": "address",
          "name": "",
          "type": "address"
        }
      ],
      "name": "totalRequests",
      "outputs": [
        {
          "internalType": "uint256",
          "name": "",
          "type": "uint256"
        }
      ],
      "stateMutability": "view",
      "type": "function"
    },
    {
      "inputs": [
        {
          "internalType": "address",
          "name": "newOwner",
          "type": "address"
        }
      ],
      "name": "transferOwnership",
      "outputs": [],
      "stateMutability": "nonpayable",
      "type": "function"
    }
  ],
  "bytecode": "0x6080604052600154600280546001600160a01b039283166001600160a01b031991821617909155600354600480549190931691161790553480156200004357600080fd5b5060405162001ee938038062001ee9833981016040819052620000669162000142565b6200007133620000f2565b6001600160a01b038116620000cc5760405162461bcd60e51b815260206004820152601360248201527f4e6f7420612076616c6964206164647265737300000000000000000000000000604482015260640160405180910390fd5b600180546001600160a01b0319166001600160a01b039290921691909117905562000174565b600080546001600160a01b038381166001600160a01b0319831681178455604051919092169283917f8be0079c531659141344cd1fd0a4f28419497f9722a3daafe3b4186f6b6457e09190a35050565b6000602082840312156200015557600080fd5b81516001600160a01b03811681146200016d57600080fd5b9392505050565b611d6580620001846000396000f3fe6080604052600436106100fe5760003560e01c80638da5cb5b11610095578063cf73a1bc11610064578063cf73a1bc14610280578063d0ebdbe7146102a0578063d250a07a146102c0578063d89448ef146102d3578063f2fde38b146102e657600080fd5b80638da5cb5b146101f15780639ecebe2a1461020f578063af231a5814610240578063ce9ac84d1461026057600080fd5b8063564e593e116100d1578063564e593e1461017e57806362b62ec614610191578063694d0473146101a4578063715018a6146101dc57600080fd5b80631805ee4f1461010357806334777e58146101185780634aeb3560146101585780634f6ac7d91461016b575b600080fd5b61011661011136600461190f565b610306565b005b34801561012457600080fd5b50610145610133366004611944565b60066020526000908152604090205481565b6040519081526020015b60405180910390f35b610116610166366004611968565b61058a565b61011661017936600461190f565b6107a4565b61011661018c366004611968565b610bd2565b61014561019f366004611994565b610d6b565b3480156101b057600080fd5b506003546101c4906001600160a01b031681565b6040516001600160a01b03909116815260200161014f565b3480156101e857600080fd5b50610116611000565b3480156101fd57600080fd5b506000546001600160a01b03166101c4565b34801561021b57600080fd5b5061022f61022a366004611968565b611014565b60405161014f959493929190611a7b565b34801561024c57600080fd5b5061011661025b366004611944565b6110e6565b34801561026c57600080fd5b5061014561027b366004611ae2565b61115c565b34801561028c57600080fd5b506001546101c4906001600160a01b031681565b3480156102ac57600080fd5b506101166102bb366004611944565b611309565b6101166102ce36600461190f565b61137f565b6101166102e1366004611968565b6115e3565b3480156102f257600080fd5b50610116610301366004611944565b61172e565b6001600160a01b0383166103355760405162461bcd60e51b815260040161032c90611bad565b60405180910390fd5b6001600160a01b0380841660009081526005602090815260408083208684528252808320815160a081018352815490951685526001810154928501929092526002820180549394939184019161038a90611bda565b80601f01602080910402602001604051908101604052809291908181526020018280546103b690611bda565b80156104035780601f106103d857610100808354040283529160200191610403565b820191906000526020600020905b8154815290600101906020018083116103e657829003601f168201915b5050509183525050600382015460209091019060ff16600481111561042a5761042a611a47565b600481111561043b5761043b611a47565b81526020016003820160019054906101000a900460ff16600481111561046357610463611a47565b600481111561047457610474611a47565b905250905060018160600151600481111561049157610491611a47565b14156104af5760405162461bcd60e51b815260040161032c90611c15565b6000816060015160048111156104c7576104c7611a47565b146104e45760405162461bcd60e51b815260040161032c90611c3b565b600480546020830151604051639adfa2d960e01b81526001600160a01b0390921692639adfa2d99261051c9233928a92899101611c65565b6020604051808303816000875af115801561053b573d6000803e3d6000fd5b505050506040513d601f19601f8201168201806040525081019061055f9190611c8e565b50600460608201526080810160035b9081600481111561058157610581611a47565b90525050505050565b6001600160a01b0380831660009081526005602090815260408083208584528252808320815160a08101835281549095168552600181015492850192909252600282018054939493918401916105df90611bda565b80601f016020809104026020016040519081016040528092919081815260200182805461060b90611bda565b80156106585780601f1061062d57610100808354040283529160200191610658565b820191906000526020600020905b81548152906001019060200180831161063b57829003601f168201915b5050509183525050600382015460209091019060ff16600481111561067f5761067f611a47565b600481111561069057610690611a47565b81526020016003820160019054906101000a900460ff1660048111156106b8576106b8611a47565b60048111156106c9576106c9611a47565b905250905060025b816080015160048111156106e7576106e7611a47565b146107205760405162461bcd60e51b81526020600482015260096024820152684e6f74206120454d4960b81b604482015260640161032c565b60018160600151600481111561073857610738611a47565b14156107565760405162461bcd60e51b815260040161032c90611c15565b60016060820152805160208201516040517fb65db014b723fadd3247432ed31608af65170037629d00dc6447edf9701d14fb92610797928792879190611c65565b60405180910390a1505050565b6001600160a01b0383166107ca5760405162461bcd60e51b815260040161032c90611bad565b6001600160a01b0380841660009081526005602090815260408083208684528252808320815160a081018352815490951685526001810154928501929092526002820180549394939184019161081f90611bda565b80601f016020809104026020016040519081016040528092919081815260200182805461084b90611bda565b80156108985780601f1061086d57610100808354040283529160200191610898565b820191906000526020600020905b81548152906001019060200180831161087b57829003601f168201915b5050509183525050600382015460209091019060ff1660048111156108bf576108bf611a47565b60048111156108d0576108d0611a47565b81526020016003820160019054906101000a900460ff1660048111156108f8576108f8611a47565b600481111561090957610909611a47565b905250905060018160600151600481111561092657610926611a47565b14156109445760405162461bcd60e51b815260040161032c90611c15565b81600114806109535750816002145b6109945760405162461bcd60e51b81526020600482015260126024820152714e6f7420612076616c69642063686f69636560701b604482015260640161032c565b8160011415610b0757806020015134146109f05760405162461bcd60e51b815260206004820152601e60248201527f54686520616d6f756e742073656e74206973206e6f7420636f72726563740000604482015260640161032c565b600254604051630743144960e01b81526001600160a01b0386811660048301526000921690630743144990602401602060405180830381865afa158015610a3b573d6000803e3d6000fd5b505050506040513d601f19601f82011682018060405250810190610a5f9190611ca7565b90506000816001600160a01b0316836020015160405160006040518083038185875af1925050503d8060008114610ab2576040519150601f19603f3d011682016040523d82523d6000602084013e610ab7565b606091505b5050905080610b005760405162461bcd60e51b81526020600482015260156024820152741c995c5d595cdd081b9bdd0818dbdb5c1b195d1959605a1b604482015260640161032c565b5050610b7c565b600480548251602084015160405163165f97a560e01b81526001600160a01b039283169481019490945287821660248501526044840152169063165f97a590606401600060405180830381600087803b158015610b6357600080fd5b505af1158015610b77573d6000803e3d6000fd5b505050505b6001606082018190526080820152805160208201516040517fb65db014b723fadd3247432ed31608af65170037629d00dc6447edf9701d14fb92610bc4928892889190611c65565b60405180910390a150505050565b6001600160a01b0380831660009081526005602090815260408083208584528252808320815160a0810183528154909516855260018101549285019290925260028201805493949391840191610c2790611bda565b80601f0160208091040260200160405190810160405280929190818152602001828054610c5390611bda565b8015610ca05780601f10610c7557610100808354040283529160200191610ca0565b820191906000526020600020905b815481529060010190602001808311610c8357829003601f168201915b5050509183525050600382015460209091019060ff166004811115610cc757610cc7611a47565b6004811115610cd857610cd8611a47565b81526020016003820160019054906101000a900460ff166004811115610d0057610d00611a47565b6004811115610d1157610d11611a47565b9052509050600481608001516004811115610d2e57610d2e611a47565b146107205760405162461bcd60e51b815260206004820152600d60248201526c02737ba10309039ba3932b0b69609d1b604482015260640161032c565b60006001600160a01b038616610d935760405162461bcd60e51b815260040161032c90611bad565b6001600160a01b0380871660009081526005602090815260408083208984528252808320815160a0810183528154909516855260018101549285019290925260028201805493949391840191610de890611bda565b80601f0160208091040260200160405190810160405280929190818152602001828054610e1490611bda565b8015610e615780601f10610e3657610100808354040283529160200191610e61565b820191906000526020600020905b815481529060010190602001808311610e4457829003601f168201915b5050509183525050600382015460209091019060ff166004811115610e8857610e88611a47565b6004811115610e9957610e99611a47565b81526020016003820160019054906101000a900460ff166004811115610ec157610ec1611a47565b6004811115610ed257610ed2611a47565b9052509050600181606001516004811115610eef57610eef611a47565b1415610f0d5760405162461bcd60e51b815260040161032c90611c15565b600081606001516004811115610f2557610f25611a47565b14610f425760405162461bcd60e51b815260040161032c90611c3b565b600480546020830151604051636bda314560e01b815233938101939093526001600160a01b038a81166024850152604484019190915260648301889052600b87900b608484015285811660a4840152600092911690636bda31459060c4016020604051808303816000875af1158015610fbf573d6000803e3d6000fd5b505050506040513d601f19601f82011682018060405250810190610fe39190611c8e565b600360608401526004608090930192909252509695505050505050565b6110086117a7565b6110126000611801565b565b60056020908152600092835260408084209091529082529020805460018201546002830180546001600160a01b0390931693919261105190611bda565b80601f016020809104026020016040519081016040528092919081815260200182805461107d90611bda565b80156110ca5780601f1061109f576101008083540402835291602001916110ca565b820191906000526020600020905b8154815290600101906020018083116110ad57829003601f168201915b5050506003909301549192505060ff8082169161010090041685565b6110ee6117a7565b6001600160a01b03811661113a5760405162461bcd60e51b81526020600482015260136024820152724e6f7420612076616c6964204164647265737360681b604482015260640161032c565b600380546001600160a01b0319166001600160a01b0392909216919091179055565b60008084116111ad5760405162461bcd60e51b815260206004820152601f60248201527f416d6f756e742073686f756c642062652067726561746572207468616e203000604482015260640161032c565b33600090815260066020908152604080832054815160a0810183526001600160a01b0387168152928301889052908201869052916060820190815260200160009052336000908152600560209081526040808320858452825291829020835181546001600160a01b0319166001600160a01b039091161781558382015160018201559183015180516112459260028501920190611851565b50606082015160038201805460ff1916600183600481111561126957611269611a47565b0217905550608082015160038201805461ff00191661010083600481111561129357611293611a47565b0217905550503360009081526006602052604081208054600193509091906112bc908490611cc4565b90915550506040517f0cfc23d3c443a1c4744e779cbf4e4e663e3a31f56bf0d02593f9f049f6eef92e906112f9903390869085908a908a90611cea565b60405180910390a1949350505050565b6113116117a7565b6001600160a01b03811661135d5760405162461bcd60e51b81526020600482015260136024820152724e6f7420612076616c6964204164647265737360681b604482015260640161032c565b600180546001600160a01b0319166001600160a01b0392909216919091179055565b6001600160a01b0383166113a55760405162461bcd60e51b815260040161032c90611bad565b6001600160a01b0380841660009081526005602090815260408083208684528252808320815160a08101835281549095168552600181015492850192909252600282018054939493918401916113fa90611bda565b80601f016020809104026020016040519081016040528092919081815260200182805461142690611bda565b80156114735780601f1061144857610100808354040283529160200191611473565b820191906000526020600020905b81548152906001019060200180831161145657829003601f168201915b5050509183525050600382015460209091019060ff16600481111561149a5761149a611a47565b60048111156114ab576114ab611a47565b81526020016003820160019054906101000a900460ff1660048111156114d3576114d3611a47565b60048111156114e4576114e4611a47565b905250905060018160600151600481111561150157611501611a47565b141561151f5760405162461bcd60e51b815260040161032c90611c15565b60008160600151600481111561153757611537611a47565b146115545760405162461bcd60e51b815260040161032c90611c3b565b6004805460208301516040516314e5238160e21b81526001600160a01b03909216926353948e049261158c9233928a92899101611c65565b6020604051808303816000875af11580156115ab573d6000803e3d6000fd5b505050506040513d601f19601f820116820180604052508101906115cf9190611c8e565b50600260608201819052608082019061056e565b6001600160a01b0380831660009081526005602090815260408083208584528252808320815160a081018352815490951685526001810154928501929092526002820180549394939184019161163890611bda565b80601f016020809104026020016040519081016040528092919081815260200182805461166490611bda565b80156116b15780601f10611686576101008083540402835291602001916116b1565b820191906000526020600020905b81548152906001019060200180831161169457829003601f168201915b5050509183525050600382015460209091019060ff1660048111156116d8576116d8611a47565b60048111156116e9576116e9611a47565b81526020016003820160019054906101000a900460ff16600481111561171157611711611a47565b600481111561172257611722611a47565b905250905060036106d1565b6117366117a7565b6001600160a01b03811661179b5760405162461bcd60e51b815260206004820152602660248201527f4f776e61626c653a206e6577206f776e657220697320746865207a65726f206160448201526564647265737360d01b606482015260840161032c565b6117a481611801565b50565b6000546001600160a01b031633146110125760405162461bcd60e51b815260206004820181905260248201527f4f776e61626c653a2063616c6c6572206973206e6f7420746865206f776e6572604482015260640161032c565b600080546001600160a01b038381166001600160a01b0319831681178455604051919092169283917f8be0079c531659141344cd1fd0a4f28419497f9722a3daafe3b4186f6b6457e09190a35050565b82805461185d90611bda565b90600052602060002090601f01602090048101928261187f57600085556118c5565b82601f1061189857805160ff19168380011785556118c5565b828001600101855582156118c5579182015b828111156118c55782518255916020019190600101906118aa565b506118d19291506118d5565b5090565b5b808211156118d157600081556001016118d6565b6001600160a01b03811681146117a457600080fd5b803561190a816118ea565b919050565b60008060006060848603121561192457600080fd5b833561192f816118ea565b95602085013595506040909401359392505050565b60006020828403121561195657600080fd5b8135611961816118ea565b9392505050565b6000806040838503121561197b57600080fd5b8235611986816118ea565b946020939093013593505050565b600080600080600060a086880312156119ac57600080fd5b85356119b7816118ea565b945060208601359350604086013592506060860135600b81900b81146119dc57600080fd5b915060808601356119ec816118ea565b809150509295509295909350565b6000815180845260005b81811015611a2057602081850181015186830182015201611a04565b81811115611a32576000602083870101525b50601f01601f19169290920160200192915050565b634e487b7160e01b600052602160045260246000fd5b600581106117a457634e487b7160e01b600052602160045260246000fd5b60018060a01b038616815284602082015260a060408201526000611aa260a08301866119fa565b9050611aad84611a5d565b836060830152611abc83611a5d565b8260808301529695505050505050565b634e487b7160e01b600052604160045260246000fd5b600080600060608486031215611af757600080fd5b83359250602084013567ffffffffffffffff80821115611b1657600080fd5b818601915086601f830112611b2a57600080fd5b813581811115611b3c57611b3c611acc565b604051601f8201601f19908116603f01168101908382118183101715611b6457611b64611acc565b81604052828152896020848701011115611b7d57600080fd5b826020860160208301376000602084830101528096505050505050611ba4604085016118ff565b90509250925092565b6020808252601390820152724e6f7420612076616c6964206164647265737360681b604082015260600190565b600181811c90821680611bee57607f821691505b60208210811415611c0f57634e487b7160e01b600052602260045260246000fd5b50919050565b6020808252600c908201526b105b1c9958591e4814185a5960a21b604082015260600190565b60208082526010908201526f139bdd081e595d081a5b9d1a585d195960821b604082015260600190565b6001600160a01b0394851681529290931660208301526040820152606081019190915260800190565b600060208284031215611ca057600080fd5b5051919050565b600060208284031215611cb957600080fd5b8151611961816118ea565b60008219821115611ce557634e487b7160e01b600052601160045260246000fd5b500190565b6001600160a01b03868116825285166020820152604081018490526060810183905260a060808201819052600090611d24908301846119fa565b97965050505050505056fea264697066735822122004364419f9e0c4ec4273ce1cbefda55db6778339a2f4f222916f7e76621575ca64736f6c634300080a0033",
  "linkReferences": {},
  "deployedLinkReferences": {}
}