{
  "_format": "hh-sol-artifact-1",
  "contractName": "paymentRequests",
  "sourceName": "contracts/paymentRequest.sol",
  "abi": [
    {
      "inputs": [
        {
          "internalType": "address",
          "name": "_managerAddress",
          "type": "address"
        }
      ],
      "stateMutability": "nonpayable",
      "type": "constructor"
    },
    {
      "anonymous": false,
      "inputs": [
        {
          "indexed": true,
          "internalType": "address",
          "name": "previousOwner",
          "type": "address"
        },
        {
          "indexed": true,
          "internalType": "address",
          "name": "newOwner",
          "type": "address"
        }
      ],
      "name": "OwnershipTransferred",
      "type": "event"
    },
    {
      "anonymous": false,
      "inputs": [
        {
          "indexed": false,
          "internalType": "address",
          "name": "payee",
          "type": "address"
        },
        {
          "indexed": false,
          "internalType": "address",
          "name": "payer",
          "type": "address"
        },
        {
          "indexed": false,
          "internalType": "uint256",
          "name": "id",
          "type": "uint256"
        },
        {
          "indexed": false,
          "internalType": "uint256",
          "name": "amount",
          "type": "uint256"
        }
      ],
      "name": "RequestPaid",
      "type": "event"
    },
    {
      "anonymous": false,
      "inputs": [
        {
          "indexed": false,
          "internalType": "address",
          "name": "creator",
          "type": "address"
        },
        {
          "indexed": false,
          "internalType": "address",
          "name": "payer",
          "type": "address"
        },
        {
          "indexed": false,
          "internalType": "uint256",
          "name": "id",
          "type": "uint256"
        },
        {
          "indexed": false,
          "internalType": "uint256",
          "name": "amount",
          "type": "uint256"
        },
        {
          "indexed": false,
          "internalType": "string",
          "name": "detailsURI",
          "type": "string"
        }
      ],
      "name": "RequestsCreated",
      "type": "event"
    },
    {
      "inputs": [
        {
          "internalType": "address",
          "name": "_creator",
          "type": "address"
        },
        {
          "internalType": "uint256",
          "name": "_id",
          "type": "uint256"
        },
        {
          "internalType": "uint256",
          "name": "_tenure",
          "type": "uint256"
        }
      ],
      "name": "PayEMI",
      "outputs": [],
      "stateMutability": "payable",
      "type": "function"
    },
    {
      "inputs": [
        {
          "internalType": "address",
          "name": "_creator",
          "type": "address"
        },
        {
          "internalType": "uint256",
          "name": "_id",
          "type": "uint256"
        },
        {
          "internalType": "uint256",
          "name": "_timePeriod",
          "type": "uint256"
        }
      ],
      "name": "PayLater",
      "outputs": [],
      "stateMutability": "payable",
      "type": "function"
    },
    {
      "inputs": [
        {
          "internalType": "address",
          "name": "_creator",
          "type": "address"
        },
        {
          "internalType": "uint256",
          "name": "_id",
          "type": "uint256"
        },
        {
          "internalType": "uint256",
          "name": "choice",
          "type": "uint256"
        }
      ],
      "name": "PayNow",
      "outputs": [],
      "stateMutability": "payable",
      "type": "function"
    },
    {
      "inputs": [
        {
          "internalType": "address",
          "name": "_creator",
          "type": "address"
        },
        {
          "internalType": "uint256",
          "name": "_id",
          "type": "uint256"
        },
        {
          "internalType": "uint256",
          "name": "_timePeriod",
          "type": "uint256"
        },
        {
          "internalType": "int96",
          "name": "_flowRate",
          "type": "int96"
        },
        {
          "internalType": "contract ISuperfluidToken",
          "name": "_token",
          "type": "address"
        }
      ],
      "name": "PayStream",
      "outputs": [
        {
          "internalType": "uint256",
          "name": "streamID",
          "type": "uint256"
        }
      ],
      "stateMutability": "payable",
      "type": "function"
    },
    {
      "inputs": [
        {
          "internalType": "address",
          "name": "_creator",
          "type": "address"
        },
        {
          "internalType": "uint256",
          "name": "_id",
          "type": "uint256"
        }
      ],
      "name": "completePayEMI",
      "outputs": [],
      "stateMutability": "payable",
      "type": "function"
    },
    {
      "inputs": [
        {
          "internalType": "address",
          "name": "_creator",
          "type": "address"
        },
        {
          "internalType": "uint256",
          "name": "_id",
          "type": "uint256"
        }
      ],
      "name": "completePayLater",
      "outputs": [],
      "stateMutability": "payable",
      "type": "function"
    },
    {
      "inputs": [
        {
          "internalType": "address",
          "name": "_creator",
          "type": "address"
        },
        {
          "internalType": "uint256",
          "name": "_id",
          "type": "uint256"
        }
      ],
      "name": "completePayStream",
      "outputs": [],
      "stateMutability": "payable",
      "type": "function"
    },
    {
      "inputs": [
        {
          "internalType": "uint256",
          "name": "_amount",
          "type": "uint256"
        },
        {
          "internalType": "string",
          "name": "_detailsURI",
          "type": "string"
        },
        {
          "internalType": "address",
          "name": "payer",
          "type": "address"
        }
      ],
      "name": "createRequest",
      "outputs": [
        {
          "internalType": "uint256",
          "name": "id",
          "type": "uint256"
        }
      ],
      "stateMutability": "nonpayable",
      "type": "function"
    },
    {
      "inputs": [],
      "name": "managerAddress",
      "outputs": [
        {
          "internalType": "address",
          "name": "",
          "type": "address"
        }
      ],
      "stateMutability": "view",
      "type": "function"
    },
    {
      "inputs": [],
      "name": "owner",
      "outputs": [
        {
          "internalType": "address",
          "name": "",
          "type": "address"
        }
      ],
      "stateMutability": "view",
      "type": "function"
    },
    {
      "inputs": [],
      "name": "paymentsAddress",
      "outputs": [
        {
          "internalType": "address",
          "name": "",
          "type": "address"
        }
      ],
      "stateMutability": "view",
      "type": "function"
    },
    {
      "inputs": [],
      "name": "renounceOwnership",
      "outputs": [],
      "stateMutability": "nonpayable",
      "type": "function"
    },
    {
      "inputs": [
        {
          "internalType": "address",
          "name": "_managerAddress",
          "type": "address"
        }
      ],
      "name": "setManager",
      "outputs": [],
      "stateMutability": "nonpayable",
      "type": "function"
    },
    {
      "inputs": [
        {
          "internalType": "address",
          "name": "_paymentsAddress",
          "type": "address"
        }
      ],
      "name": "setPayments",
      "outputs": [],
      "stateMutability": "nonpayable",
      "type": "function"
    },
    {
      "inputs": [
        {
          "internalType": "address",
          "name": "",
          "type": "address"
        }
      ],
      "name": "totalRequests",
      "outputs": [
        {
          "internalType": "uint256",
          "name": "",
          "type": "uint256"
        }
      ],
      "stateMutability": "view",
      "type": "function"
    },
    {
      "inputs": [
        {
          "internalType": "address",
          "name": "newOwner",
          "type": "address"
        }
      ],
      "name": "transferOwnership",
      "outputs": [],
      "stateMutability": "nonpayable",
      "type": "function"
    }
  ],
  "bytecode": "0x6080604052600154600280546001600160a01b039283166001600160a01b031991821617909155600354600480549190931691161790553480156200004357600080fd5b5060405162001e3338038062001e33833981016040819052620000669162000142565b6200007133620000f2565b6001600160a01b038116620000cc5760405162461bcd60e51b815260206004820152601360248201527f4e6f7420612076616c6964206164647265737300000000000000000000000000604482015260640160405180910390fd5b600180546001600160a01b0319166001600160a01b039290921691909117905562000174565b600080546001600160a01b038381166001600160a01b0319831681178455604051919092169283917f8be0079c531659141344cd1fd0a4f28419497f9722a3daafe3b4186f6b6457e09190a35050565b6000602082840312156200015557600080fd5b81516001600160a01b03811681146200016d57600080fd5b9392505050565b611caf80620001846000396000f3fe6080604052600436106100f35760003560e01c80638da5cb5b1161008a578063d0ebdbe711610059578063d0ebdbe714610264578063d250a07a14610284578063d89448ef14610297578063f2fde38b146102aa57600080fd5b80638da5cb5b146101e6578063af231a5814610204578063ce9ac84d14610224578063cf73a1bc1461024457600080fd5b8063564e593e116100c6578063564e593e1461017357806362b62ec614610186578063694d047314610199578063715018a6146101d157600080fd5b80631805ee4f146100f857806334777e581461010d5780634aeb35601461014d5780634f6ac7d914610160575b600080fd5b61010b6101063660046118b9565b6102ca565b005b34801561011957600080fd5b5061013a6101283660046118ee565b60066020526000908152604090205481565b6040519081526020015b60405180910390f35b61010b61015b366004611912565b61054e565b61010b61016e3660046118b9565b610768565b61010b610181366004611912565b610b96565b61013a61019436600461193e565b610d2f565b3480156101a557600080fd5b506003546101b9906001600160a01b031681565b6040516001600160a01b039091168152602001610144565b3480156101dd57600080fd5b5061010b610fc4565b3480156101f257600080fd5b506000546001600160a01b03166101b9565b34801561021057600080fd5b5061010b61021f3660046118ee565b610fd8565b34801561023057600080fd5b5061013a61023f3660046119ba565b61104e565b34801561025057600080fd5b506001546101b9906001600160a01b031681565b34801561027057600080fd5b5061010b61027f3660046118ee565b6112b3565b61010b6102923660046118b9565b611329565b61010b6102a5366004611912565b61158d565b3480156102b657600080fd5b5061010b6102c53660046118ee565b6116d8565b6001600160a01b0383166102f95760405162461bcd60e51b81526004016102f090611a85565b60405180910390fd5b6001600160a01b0380841660009081526005602090815260408083208684528252808320815160a081018352815490951685526001810154928501929092526002820180549394939184019161034e90611ab2565b80601f016020809104026020016040519081016040528092919081815260200182805461037a90611ab2565b80156103c75780601f1061039c576101008083540402835291602001916103c7565b820191906000526020600020905b8154815290600101906020018083116103aa57829003601f168201915b5050509183525050600382015460209091019060ff1660048111156103ee576103ee611aed565b60048111156103ff576103ff611aed565b81526020016003820160019054906101000a900460ff16600481111561042757610427611aed565b600481111561043857610438611aed565b905250905060018160600151600481111561045557610455611aed565b14156104735760405162461bcd60e51b81526004016102f090611b03565b60008160600151600481111561048b5761048b611aed565b146104a85760405162461bcd60e51b81526004016102f090611b29565b600480546020830151604051639adfa2d960e01b81526001600160a01b0390921692639adfa2d9926104e09233928a92899101611b53565b6020604051808303816000875af11580156104ff573d6000803e3d6000fd5b505050506040513d601f19601f820116820180604052508101906105239190611b7c565b50600460608201526080810160035b9081600481111561054557610545611aed565b90525050505050565b6001600160a01b0380831660009081526005602090815260408083208584528252808320815160a08101835281549095168552600181015492850192909252600282018054939493918401916105a390611ab2565b80601f01602080910402602001604051908101604052809291908181526020018280546105cf90611ab2565b801561061c5780601f106105f15761010080835404028352916020019161061c565b820191906000526020600020905b8154815290600101906020018083116105ff57829003601f168201915b5050509183525050600382015460209091019060ff16600481111561064357610643611aed565b600481111561065457610654611aed565b81526020016003820160019054906101000a900460ff16600481111561067c5761067c611aed565b600481111561068d5761068d611aed565b905250905060025b816080015160048111156106ab576106ab611aed565b146106e45760405162461bcd60e51b81526020600482015260096024820152684e6f74206120454d4960b81b60448201526064016102f0565b6001816060015160048111156106fc576106fc611aed565b141561071a5760405162461bcd60e51b81526004016102f090611b03565b60016060820152805160208201516040517fb65db014b723fadd3247432ed31608af65170037629d00dc6447edf9701d14fb9261075b928792879190611b53565b60405180910390a1505050565b6001600160a01b03831661078e5760405162461bcd60e51b81526004016102f090611a85565b6001600160a01b0380841660009081526005602090815260408083208684528252808320815160a08101835281549095168552600181015492850192909252600282018054939493918401916107e390611ab2565b80601f016020809104026020016040519081016040528092919081815260200182805461080f90611ab2565b801561085c5780601f106108315761010080835404028352916020019161085c565b820191906000526020600020905b81548152906001019060200180831161083f57829003601f168201915b5050509183525050600382015460209091019060ff16600481111561088357610883611aed565b600481111561089457610894611aed565b81526020016003820160019054906101000a900460ff1660048111156108bc576108bc611aed565b60048111156108cd576108cd611aed565b90525090506001816060015160048111156108ea576108ea611aed565b14156109085760405162461bcd60e51b81526004016102f090611b03565b81600114806109175750816002145b6109585760405162461bcd60e51b81526020600482015260126024820152714e6f7420612076616c69642063686f69636560701b60448201526064016102f0565b8160011415610acb57806020015134146109b45760405162461bcd60e51b815260206004820152601e60248201527f54686520616d6f756e742073656e74206973206e6f7420636f7272656374000060448201526064016102f0565b600254604051630743144960e01b81526001600160a01b0386811660048301526000921690630743144990602401602060405180830381865afa1580156109ff573d6000803e3d6000fd5b505050506040513d601f19601f82011682018060405250810190610a239190611b95565b90506000816001600160a01b0316836020015160405160006040518083038185875af1925050503d8060008114610a76576040519150601f19603f3d011682016040523d82523d6000602084013e610a7b565b606091505b5050905080610ac45760405162461bcd60e51b81526020600482015260156024820152741c995c5d595cdd081b9bdd0818dbdb5c1b195d1959605a1b60448201526064016102f0565b5050610b40565b600480548251602084015160405163165f97a560e01b81526001600160a01b039283169481019490945287821660248501526044840152169063165f97a590606401600060405180830381600087803b158015610b2757600080fd5b505af1158015610b3b573d6000803e3d6000fd5b505050505b6001606082018190526080820152805160208201516040517fb65db014b723fadd3247432ed31608af65170037629d00dc6447edf9701d14fb92610b88928892889190611b53565b60405180910390a150505050565b6001600160a01b0380831660009081526005602090815260408083208584528252808320815160a0810183528154909516855260018101549285019290925260028201805493949391840191610beb90611ab2565b80601f0160208091040260200160405190810160405280929190818152602001828054610c1790611ab2565b8015610c645780601f10610c3957610100808354040283529160200191610c64565b820191906000526020600020905b815481529060010190602001808311610c4757829003601f168201915b5050509183525050600382015460209091019060ff166004811115610c8b57610c8b611aed565b6004811115610c9c57610c9c611aed565b81526020016003820160019054906101000a900460ff166004811115610cc457610cc4611aed565b6004811115610cd557610cd5611aed565b9052509050600481608001516004811115610cf257610cf2611aed565b146106e45760405162461bcd60e51b815260206004820152600d60248201526c02737ba10309039ba3932b0b69609d1b60448201526064016102f0565b60006001600160a01b038616610d575760405162461bcd60e51b81526004016102f090611a85565b6001600160a01b0380871660009081526005602090815260408083208984528252808320815160a0810183528154909516855260018101549285019290925260028201805493949391840191610dac90611ab2565b80601f0160208091040260200160405190810160405280929190818152602001828054610dd890611ab2565b8015610e255780601f10610dfa57610100808354040283529160200191610e25565b820191906000526020600020905b815481529060010190602001808311610e0857829003601f168201915b5050509183525050600382015460209091019060ff166004811115610e4c57610e4c611aed565b6004811115610e5d57610e5d611aed565b81526020016003820160019054906101000a900460ff166004811115610e8557610e85611aed565b6004811115610e9657610e96611aed565b9052509050600181606001516004811115610eb357610eb3611aed565b1415610ed15760405162461bcd60e51b81526004016102f090611b03565b600081606001516004811115610ee957610ee9611aed565b14610f065760405162461bcd60e51b81526004016102f090611b29565b600480546020830151604051636bda314560e01b815233938101939093526001600160a01b038a81166024850152604484019190915260648301889052600b87900b608484015285811660a4840152600092911690636bda31459060c4016020604051808303816000875af1158015610f83573d6000803e3d6000fd5b505050506040513d601f19601f82011682018060405250810190610fa79190611b7c565b600360608401526004608090930192909252509695505050505050565b610fcc611751565b610fd660006117ab565b565b610fe0611751565b6001600160a01b03811661102c5760405162461bcd60e51b81526020600482015260136024820152724e6f7420612076616c6964204164647265737360681b60448201526064016102f0565b600380546001600160a01b0319166001600160a01b0392909216919091179055565b600254604051631e9d48cf60e01b81523360048201526000916001600160a01b031690631e9d48cf90602401602060405180830381865afa158015611097573d6000803e3d6000fd5b505050506040513d601f19601f820116820180604052508101906110bb9190611bb2565b6111075760405162461bcd60e51b815260206004820152601e60248201527f596f7520617265206e6f7420612072656769737465726564207573657220000060448201526064016102f0565b600084116111575760405162461bcd60e51b815260206004820152601f60248201527f416d6f756e742073686f756c642062652067726561746572207468616e20300060448201526064016102f0565b33600090815260066020908152604080832054815160a0810183526001600160a01b0387168152928301889052908201869052916060820190815260200160009052336000908152600560209081526040808320858452825291829020835181546001600160a01b0319166001600160a01b039091161781558382015160018201559183015180516111ef92600285019201906117fb565b50606082015160038201805460ff1916600183600481111561121357611213611aed565b0217905550608082015160038201805461ff00191661010083600481111561123d5761123d611aed565b021790555050336000908152600660205260408120805460019350909190611266908490611bd4565b90915550506040517f0cfc23d3c443a1c4744e779cbf4e4e663e3a31f56bf0d02593f9f049f6eef92e906112a3903390869085908a908a90611bfa565b60405180910390a1949350505050565b6112bb611751565b6001600160a01b0381166113075760405162461bcd60e51b81526020600482015260136024820152724e6f7420612076616c6964204164647265737360681b60448201526064016102f0565b600180546001600160a01b0319166001600160a01b0392909216919091179055565b6001600160a01b03831661134f5760405162461bcd60e51b81526004016102f090611a85565b6001600160a01b0380841660009081526005602090815260408083208684528252808320815160a08101835281549095168552600181015492850192909252600282018054939493918401916113a490611ab2565b80601f01602080910402602001604051908101604052809291908181526020018280546113d090611ab2565b801561141d5780601f106113f25761010080835404028352916020019161141d565b820191906000526020600020905b81548152906001019060200180831161140057829003601f168201915b5050509183525050600382015460209091019060ff16600481111561144457611444611aed565b600481111561145557611455611aed565b81526020016003820160019054906101000a900460ff16600481111561147d5761147d611aed565b600481111561148e5761148e611aed565b90525090506001816060015160048111156114ab576114ab611aed565b14156114c95760405162461bcd60e51b81526004016102f090611b03565b6000816060015160048111156114e1576114e1611aed565b146114fe5760405162461bcd60e51b81526004016102f090611b29565b6004805460208301516040516314e5238160e21b81526001600160a01b03909216926353948e04926115369233928a92899101611b53565b6020604051808303816000875af1158015611555573d6000803e3d6000fd5b505050506040513d601f19601f820116820180604052508101906115799190611b7c565b506002606082018190526080820190610532565b6001600160a01b0380831660009081526005602090815260408083208584528252808320815160a08101835281549095168552600181015492850192909252600282018054939493918401916115e290611ab2565b80601f016020809104026020016040519081016040528092919081815260200182805461160e90611ab2565b801561165b5780601f106116305761010080835404028352916020019161165b565b820191906000526020600020905b81548152906001019060200180831161163e57829003601f168201915b5050509183525050600382015460209091019060ff16600481111561168257611682611aed565b600481111561169357611693611aed565b81526020016003820160019054906101000a900460ff1660048111156116bb576116bb611aed565b60048111156116cc576116cc611aed565b90525090506003610695565b6116e0611751565b6001600160a01b0381166117455760405162461bcd60e51b815260206004820152602660248201527f4f776e61626c653a206e6577206f776e657220697320746865207a65726f206160448201526564647265737360d01b60648201526084016102f0565b61174e816117ab565b50565b6000546001600160a01b03163314610fd65760405162461bcd60e51b815260206004820181905260248201527f4f776e61626c653a2063616c6c6572206973206e6f7420746865206f776e657260448201526064016102f0565b600080546001600160a01b038381166001600160a01b0319831681178455604051919092169283917f8be0079c531659141344cd1fd0a4f28419497f9722a3daafe3b4186f6b6457e09190a35050565b82805461180790611ab2565b90600052602060002090601f016020900481019282611829576000855561186f565b82601f1061184257805160ff191683800117855561186f565b8280016001018555821561186f579182015b8281111561186f578251825591602001919060010190611854565b5061187b92915061187f565b5090565b5b8082111561187b5760008155600101611880565b6001600160a01b038116811461174e57600080fd5b80356118b481611894565b919050565b6000806000606084860312156118ce57600080fd5b83356118d981611894565b95602085013595506040909401359392505050565b60006020828403121561190057600080fd5b813561190b81611894565b9392505050565b6000806040838503121561192557600080fd5b823561193081611894565b946020939093013593505050565b600080600080600060a0868803121561195657600080fd5b853561196181611894565b945060208601359350604086013592506060860135600b81900b811461198657600080fd5b9150608086013561199681611894565b809150509295509295909350565b634e487b7160e01b600052604160045260246000fd5b6000806000606084860312156119cf57600080fd5b83359250602084013567ffffffffffffffff808211156119ee57600080fd5b818601915086601f830112611a0257600080fd5b813581811115611a1457611a146119a4565b604051601f8201601f19908116603f01168101908382118183101715611a3c57611a3c6119a4565b81604052828152896020848701011115611a5557600080fd5b826020860160208301376000602084830101528096505050505050611a7c604085016118a9565b90509250925092565b6020808252601390820152724e6f7420612076616c6964206164647265737360681b604082015260600190565b600181811c90821680611ac657607f821691505b60208210811415611ae757634e487b7160e01b600052602260045260246000fd5b50919050565b634e487b7160e01b600052602160045260246000fd5b6020808252600c908201526b105b1c9958591e4814185a5960a21b604082015260600190565b60208082526010908201526f139bdd081e595d081a5b9d1a585d195960821b604082015260600190565b6001600160a01b0394851681529290931660208301526040820152606081019190915260800190565b600060208284031215611b8e57600080fd5b5051919050565b600060208284031215611ba757600080fd5b815161190b81611894565b600060208284031215611bc457600080fd5b8151801515811461190b57600080fd5b60008219821115611bf557634e487b7160e01b600052601160045260246000fd5b500190565b600060018060a01b03808816835260208188168185015286604085015285606085015260a06080850152845191508160a085015260005b82811015611c4d5785810182015185820160c001528101611c31565b82811115611c5f57600060c084870101525b5050601f01601f19169190910160c001969550505050505056fea2646970667358221220443b644ba3929ae7f8559312b56c09678928893249c2059679a45c07a8b22aa664736f6c634300080a0033",
  "linkReferences": {},
  "deployedLinkReferences": {}
}